{
  "contractName": "Login",
  "abi": [
    {
      "anonymous": false,
      "inputs": [
        {
          "indexed": false,
          "name": "sender",
          "type": "address"
        },
        {
          "indexed": false,
          "name": "challenge",
          "type": "string"
        }
      ],
      "name": "LoginAttempt",
      "type": "event",
      "signature": "0xdeb017956c894eba079e6a630f5cfec256256dc05616ad89f1eb825abef45963"
    },
    {
      "constant": false,
      "inputs": [
        {
          "name": "challenge",
          "type": "string"
        }
      ],
      "name": "login",
      "outputs": [],
      "payable": false,
      "stateMutability": "nonpayable",
      "type": "function",
      "signature": "0x3a7d280c"
    }
  ],
  "bytecode": "0x608060405234801561001057600080fd5b5061020d806100206000396000f3fe608060405260043610610041576000357c0100000000000000000000000000000000000000000000000000000000900463ffffffff1680633a7d280c14610046575b600080fd5b34801561005257600080fd5b5061010c6004803603602081101561006957600080fd5b810190808035906020019064010000000081111561008657600080fd5b82018360208201111561009857600080fd5b803590602001918460018302840111640100000000831117156100ba57600080fd5b91908080601f016020809104026020016040519081016040528093929190818152602001838380828437600081840152601f19601f82011690508083019250505050505050919291929050505061010e565b005b7fdeb017956c894eba079e6a630f5cfec256256dc05616ad89f1eb825abef459633382604051808373ffffffffffffffffffffffffffffffffffffffff1673ffffffffffffffffffffffffffffffffffffffff16815260200180602001828103825283818151815260200191508051906020019080838360005b838110156101a3578082015181840152602081019050610188565b50505050905090810190601f1680156101d05780820380516001836020036101000a031916815260200191505b50935050505060405180910390a15056fea165627a7a7230582066ef991a47243ac397c87a02b9b31a207536b98b0994f02164b5b0ee537046900029",
  "source": "pragma solidity >=0.4.21 <0.6.0;\ncontract Login {\nevent LoginAttempt(address sender, string challenge);\nfunction login(string memory challenge) public {\nemit LoginAttempt(msg.sender, challenge);\n}\n}",
  "sourcePath": "D:/Academics/Theses/Passwordless-Auth/contracts/Login.sol",
  "compiler": {
    "name": "solc",
    "version": "0.5.0+commit.1d4f565a.Emscripten.clang"
  },
  "schemaVersion": "3.0.6",
  "updatedAt": "2019-04-15T17:03:46.677Z",
  "devdoc": {
    "methods": {}
  },
  "userdoc": {
    "methods": {}
  }
}